{
  "contractName": "OracleTest",
  "abi": [
    {
      "constant": true,
      "inputs": [],
      "name": "entity",
      "outputs": [
        {
          "name": "",
          "type": "string"
        }
      ],
      "payable": false,
      "stateMutability": "view",
      "type": "function"
    },
    {
      "constant": true,
      "inputs": [],
      "name": "response",
      "outputs": [
        {
          "name": "",
          "type": "uint256"
        }
      ],
      "payable": false,
      "stateMutability": "view",
      "type": "function"
    },
    {
      "constant": true,
      "inputs": [],
      "name": "lookupContract",
      "outputs": [
        {
          "name": "",
          "type": "address"
        }
      ],
      "payable": false,
      "stateMutability": "view",
      "type": "function"
    },
    {
      "constant": true,
      "inputs": [],
      "name": "id",
      "outputs": [
        {
          "name": "",
          "type": "bytes32"
        }
      ],
      "payable": false,
      "stateMutability": "view",
      "type": "function"
    },
    {
      "constant": true,
      "inputs": [],
      "name": "priceMB",
      "outputs": [
        {
          "name": "",
          "type": "uint256"
        }
      ],
      "payable": false,
      "stateMutability": "view",
      "type": "function"
    },
    {
      "constant": true,
      "inputs": [],
      "name": "entryId",
      "outputs": [
        {
          "name": "",
          "type": "string"
        }
      ],
      "payable": false,
      "stateMutability": "view",
      "type": "function"
    },
    {
      "constant": false,
      "inputs": [
        {
          "name": "queryType",
          "type": "string"
        },
        {
          "name": "originator",
          "type": "address"
        },
        {
          "name": "query",
          "type": "string"
        }
      ],
      "name": "queryOracle",
      "outputs": [
        {
          "name": "",
          "type": "bytes32"
        }
      ],
      "payable": false,
      "stateMutability": "nonpayable",
      "type": "function"
    },
    {
      "inputs": [
        {
          "name": "_lookupContract",
          "type": "address"
        }
      ],
      "payable": false,
      "stateMutability": "nonpayable",
      "type": "constructor"
    },
    {
      "constant": true,
      "inputs": [],
      "name": "getExists",
      "outputs": [
        {
          "name": "",
          "type": "bool"
        }
      ],
      "payable": false,
      "stateMutability": "view",
      "type": "function"
    },
    {
      "constant": true,
      "inputs": [],
      "name": "getMint",
      "outputs": [
        {
          "name": "",
          "type": "string"
        }
      ],
      "payable": false,
      "stateMutability": "view",
      "type": "function"
    },
    {
      "constant": true,
      "inputs": [],
      "name": "getRegister",
      "outputs": [
        {
          "name": "",
          "type": "string"
        }
      ],
      "payable": false,
      "stateMutability": "view",
      "type": "function"
    },
    {
      "constant": true,
      "inputs": [],
      "name": "getDeviceExists",
      "outputs": [
        {
          "name": "",
          "type": "string"
        }
      ],
      "payable": false,
      "stateMutability": "view",
      "type": "function"
    },
    {
      "constant": true,
      "inputs": [],
      "name": "getDeviceActivate",
      "outputs": [
        {
          "name": "",
          "type": "string"
        }
      ],
      "payable": false,
      "stateMutability": "view",
      "type": "function"
    },
    {
      "constant": true,
      "inputs": [],
      "name": "getDeviceType",
      "outputs": [
        {
          "name": "",
          "type": "string"
        }
      ],
      "payable": false,
      "stateMutability": "view",
      "type": "function"
    },
    {
      "constant": true,
      "inputs": [],
      "name": "getTraffic",
      "outputs": [
        {
          "name": "",
          "type": "uint256"
        }
      ],
      "payable": false,
      "stateMutability": "view",
      "type": "function"
    },
    {
      "constant": false,
      "inputs": [
        {
          "name": "_response",
          "type": "uint256"
        },
        {
          "name": "_originator",
          "type": "string"
        }
      ],
      "name": "__oracleCallback",
      "outputs": [],
      "payable": false,
      "stateMutability": "nonpayable",
      "type": "function"
    },
    {
      "constant": false,
      "inputs": [
        {
          "name": "_response",
          "type": "string"
        }
      ],
      "name": "__nodeRegisterCallback",
      "outputs": [],
      "payable": false,
      "stateMutability": "nonpayable",
      "type": "function"
    },
    {
      "constant": false,
      "inputs": [
        {
          "name": "_response",
          "type": "string"
        }
      ],
      "name": "__nodeMintCallback",
      "outputs": [],
      "payable": false,
      "stateMutability": "nonpayable",
      "type": "function"
    },
    {
      "constant": false,
      "inputs": [
        {
          "name": "_response",
          "type": "bool"
        },
        {
          "name": "_device",
          "type": "string"
        }
      ],
      "name": "__nodeExistsCallback",
      "outputs": [],
      "payable": false,
      "stateMutability": "nonpayable",
      "type": "function"
    },
    {
      "constant": false,
      "inputs": [
        {
          "name": "_deviceType",
          "type": "string"
        },
        {
          "name": "_device",
          "type": "string"
        }
      ],
      "name": "__nodeActivateGWCallback",
      "outputs": [],
      "payable": false,
      "stateMutability": "nonpayable",
      "type": "function"
    },
    {
      "constant": false,
      "inputs": [
        {
          "name": "_json",
          "type": "string"
        }
      ],
      "name": "mint",
      "outputs": [],
      "payable": false,
      "stateMutability": "nonpayable",
      "type": "function"
    },
    {
      "constant": false,
      "inputs": [
        {
          "name": "_json",
          "type": "string"
        }
      ],
      "name": "register",
      "outputs": [],
      "payable": false,
      "stateMutability": "nonpayable",
      "type": "function"
    },
    {
      "constant": false,
      "inputs": [
        {
          "name": "_json",
          "type": "string"
        }
      ],
      "name": "activateGW",
      "outputs": [],
      "payable": false,
      "stateMutability": "nonpayable",
      "type": "function"
    },
    {
      "constant": false,
      "inputs": [
        {
          "name": "_json",
          "type": "string"
        }
      ],
      "name": "exists",
      "outputs": [],
      "payable": false,
      "stateMutability": "nonpayable",
      "type": "function"
    },
    {
      "constant": false,
      "inputs": [
        {
          "name": "_query",
          "type": "string"
        }
      ],
      "name": "monitor",
      "outputs": [],
      "payable": false,
      "stateMutability": "nonpayable",
      "type": "function"
    }
  ],
  "bytecode": "0x608060405234801561001057600080fd5b50604051602080611ba98339810180604052810190808051906020019092919050505080806000806101000a81548173ffffffffffffffffffffffffffffffffffffffff021916908373ffffffffffffffffffffffffffffffffffffffff1602179055505061177060058190555050611b1b8061008e6000396000f30060806040526004361061013e576000357c0100000000000000000000000000000000000000000000000000000000900463ffffffff16806303acd58814610143578063261a323e14610172578063305ba455146101db5780633ff7c863146102445780634d22ac93146102ad5780634fa356ff1461033d578063591749b5146103cd578063661274a2146104425780636cdbbc661461046d5780636d6c780b146104fd5780637a7f01a71461058d5780637f7f95cb146105b8578063810ef788146106215780639d66a71814610678578063af640d0f146106e1578063b716487014610714578063d323e74d1461073f578063d85d3d27146107cf578063e0b7edd614610838578063eec3d929146108e7578063ef9e21161461095a578063f0f668c5146109ea578063f2c298be14610a7a578063fa75fa3c14610ae3575b600080fd5b34801561014f57600080fd5b50610158610bce565b604051808215151515815260200191505060405180910390f35b34801561017e57600080fd5b506101d9600480360381019080803590602001908201803590602001908080601f0160208091040260200160405190810160405280939291908181526020018383808284378201915050505050509192919290505050610be5565b005b3480156101e757600080fd5b50610242600480360381019080803590602001908201803590602001908080601f0160208091040260200160405190810160405280939291908181526020018383808284378201915050505050509192919290505050610c32565b005b34801561025057600080fd5b506102ab600480360381019080803590602001908201803590602001908080601f0160208091040260200160405190810160405280939291908181526020018383808284378201915050505050509192919290505050610d4b565b005b3480156102b957600080fd5b506102c2610d98565b6040518080602001828103825283818151815260200191508051906020019080838360005b838110156103025780820151818401526020810190506102e7565b50505050905090810190601f16801561032f5780820380516001836020036101000a031916815260200191505b509250505060405180910390f35b34801561034957600080fd5b50610352610e3a565b6040518080602001828103825283818151815260200191508051906020019080838360005b83811015610392578082015181840152602081019050610377565b50505050905090810190601f1680156103bf5780820380516001836020036101000a031916815260200191505b509250505060405180910390f35b3480156103d957600080fd5b50610440600480360381019080803515159060200190929190803590602001908201803590602001908080601f0160208091040260200160405190810160405280939291908181526020018383808284378201915050505050509192919290505050610edc565b005b34801561044e57600080fd5b50610457611010565b6040518082815260200191505060405180910390f35b34801561047957600080fd5b5061048261101a565b6040518080602001828103825283818151815260200191508051906020019080838360005b838110156104c25780820151818401526020810190506104a7565b50505050905090810190601f1680156104ef5780820380516001836020036101000a031916815260200191505b509250505060405180910390f35b34801561050957600080fd5b506105126110b8565b6040518080602001828103825283818151815260200191508051906020019080838360005b83811015610552578082015181840152602081019050610537565b50505050905090810190601f16801561057f5780820380516001836020036101000a031916815260200191505b509250505060405180910390f35b34801561059957600080fd5b506105a261115a565b6040518082815260200191505060405180910390f35b3480156105c457600080fd5b5061061f600480360381019080803590602001908201803590602001908080601f0160208091040260200160405190810160405280939291908181526020018383808284378201915050505050509192919290505050611160565b005b34801561062d57600080fd5b50610636611279565b604051808273ffffffffffffffffffffffffffffffffffffffff1673ffffffffffffffffffffffffffffffffffffffff16815260200191505060405180910390f35b34801561068457600080fd5b506106df600480360381019080803590602001908201803590602001908080601f016020809104026020016040519081016040528093929190818152602001838380828437820191505050505050919291929050505061129e565b005b3480156106ed57600080fd5b506106f66112eb565b60405180826000191660001916815260200191505060405180910390f35b34801561072057600080fd5b506107296112f1565b6040518082815260200191505060405180910390f35b34801561074b57600080fd5b506107546112f7565b6040518080602001828103825283818151815260200191508051906020019080838360005b83811015610794578082015181840152602081019050610779565b50505050905090810190601f1680156107c15780820380516001836020036101000a031916815260200191505b509250505060405180910390f35b3480156107db57600080fd5b50610836600480360381019080803590602001908201803590602001908080601f0160208091040260200160405190810160405280939291908181526020018383808284378201915050505050509192919290505050611395565b005b34801561084457600080fd5b506108e5600480360381019080803590602001908201803590602001908080601f0160208091040260200160405190810160405280939291908181526020018383808284378201915050505050509192919290803590602001908201803590602001908080601f01602080910402602001604051908101604052809392919081815260200183838082843782019150505050505091929192905050506113e2565b005b3480156108f357600080fd5b5061095860048036038101908080359060200190929190803590602001908201803590602001908080601f0160208091040260200160405190810160405280939291908181526020018383808284378201915050505050509192919290505050611513565b005b34801561096657600080fd5b5061096f611634565b6040518080602001828103825283818151815260200191508051906020019080838360005b838110156109af578082015181840152602081019050610994565b50505050905090810190601f1680156109dc5780820380516001836020036101000a031916815260200191505b509250505060405180910390f35b3480156109f657600080fd5b506109ff6116d6565b6040518080602001828103825283818151815260200191508051906020019080838360005b83811015610a3f578082015181840152602081019050610a24565b50505050905090810190601f168015610a6c5780820380516001836020036101000a031916815260200191505b509250505060405180910390f35b348015610a8657600080fd5b50610ae1600480360381019080803590602001908201803590602001908080601f0160208091040260200160405190810160405280939291908181526020018383808284378201915050505050509192919290505050611778565b005b348015610aef57600080fd5b50610bb0600480360381019080803590602001908201803590602001908080601f0160208091040260200160405190810160405280939291908181526020018383808284378201915050505050509192919290803573ffffffffffffffffffffffffffffffffffffffff169060200190929190803590602001908201803590602001908080601f01602080910402602001604051908101604052809392919081815260200183838082843782019150505050505091929192905050506117c5565b60405180826000191660001916815260200191505060405180910390f35b6000600660009054906101000a900460ff16905090565b610c256040805190810160405280600d81526020017f6e6f646564625e6578697374730000000000000000000000000000000000000081525033836117c5565b6003816000191690555050565b60008060009054906101000a900473ffffffffffffffffffffffffffffffffffffffff1690508073ffffffffffffffffffffffffffffffffffffffff16637e9ba3016040518163ffffffff167c0100000000000000000000000000000000000000000000000000000000028152600401602060405180830381600087803b158015610cbc57600080fd5b505af1158015610cd0573d6000803e3d6000fd5b505050506040513d6020811015610ce657600080fd5b810190808051906020019092919050505073ffffffffffffffffffffffffffffffffffffffff163373ffffffffffffffffffffffffffffffffffffffff16141515610d3057600080fd5b8160099080519060200190610d46929190611a4a565b505050565b610d8b6040805190810160405280601181526020017f6e6f646564625e6163746976617465475700000000000000000000000000000081525033836117c5565b6003816000191690555050565b6060600c8054600181600116156101000203166002900480601f016020809104026020016040519081016040528092919081815260200182805460018160011615610100020316600290048015610e305780601f10610e0557610100808354040283529160200191610e30565b820191906000526020600020905b815481529060010190602001808311610e1357829003601f168201915b5050505050905090565b6060600a8054600181600116156101000203166002900480601f016020809104026020016040519081016040528092919081815260200182805460018160011615610100020316600290048015610ed25780601f10610ea757610100808354040283529160200191610ed2565b820191906000526020600020905b815481529060010190602001808311610eb557829003601f168201915b5050505050905090565b60008060009054906101000a900473ffffffffffffffffffffffffffffffffffffffff1690508073ffffffffffffffffffffffffffffffffffffffff16637e9ba3016040518163ffffffff167c0100000000000000000000000000000000000000000000000000000000028152600401602060405180830381600087803b158015610f6657600080fd5b505af1158015610f7a573d6000803e3d6000fd5b505050506040513d6020811015610f9057600080fd5b810190808051906020019092919050505073ffffffffffffffffffffffffffffffffffffffff163373ffffffffffffffffffffffffffffffffffffffff16141515610fda57600080fd5b82600660006101000a81548160ff02191690831515021790555081600a908051906020019061100a929190611a4a565b50505050565b6000600d54905090565b60028054600181600116156101000203166002900480601f0160208091040260200160405190810160405280929190818152602001828054600181600116156101000203166002900480156110b05780601f10611085576101008083540402835291602001916110b0565b820191906000526020600020905b81548152906001019060200180831161109357829003601f168201915b505050505081565b606060098054600181600116156101000203166002900480601f0160208091040260200160405190810160405280929190818152602001828054600181600116156101000203166002900480156111505780601f1061112557610100808354040283529160200191611150565b820191906000526020600020905b81548152906001019060200180831161113357829003601f168201915b5050505050905090565b60015481565b60008060009054906101000a900473ffffffffffffffffffffffffffffffffffffffff1690508073ffffffffffffffffffffffffffffffffffffffff16637e9ba3016040518163ffffffff167c0100000000000000000000000000000000000000000000000000000000028152600401602060405180830381600087803b1580156111ea57600080fd5b505af11580156111fe573d6000803e3d6000fd5b505050506040513d602081101561121457600080fd5b810190808051906020019092919050505073ffffffffffffffffffffffffffffffffffffffff163373ffffffffffffffffffffffffffffffffffffffff1614151561125e57600080fd5b8160089080519060200190611274929190611a4a565b505050565b6000809054906101000a900473ffffffffffffffffffffffffffffffffffffffff1681565b6112de6040805190810160405280600781526020017f6d6f6e69746f720000000000000000000000000000000000000000000000000081525033836117c5565b6003816000191690555050565b60035481565b60055481565b60048054600181600116156101000203166002900480601f01602080910402602001604051908101604052809291908181526020018280546001816001161561010002031660029004801561138d5780601f106113625761010080835404028352916020019161138d565b820191906000526020600020905b81548152906001019060200180831161137057829003601f168201915b505050505081565b6113d56040805190810160405280600b81526020017f6e6f646564625e6d696e7400000000000000000000000000000000000000000081525033836117c5565b6003816000191690555050565b60008060009054906101000a900473ffffffffffffffffffffffffffffffffffffffff1690508073ffffffffffffffffffffffffffffffffffffffff16637e9ba3016040518163ffffffff167c0100000000000000000000000000000000000000000000000000000000028152600401602060405180830381600087803b15801561146c57600080fd5b505af1158015611480573d6000803e3d6000fd5b505050506040513d602081101561149657600080fd5b810190808051906020019092919050505073ffffffffffffffffffffffffffffffffffffffff163373ffffffffffffffffffffffffffffffffffffffff161415156114e057600080fd5b81600c90805190602001906114f6929190611a4a565b5082600b908051906020019061150d929190611a4a565b50505050565b60008060009054906101000a900473ffffffffffffffffffffffffffffffffffffffff1690508073ffffffffffffffffffffffffffffffffffffffff16637e9ba3016040518163ffffffff167c0100000000000000000000000000000000000000000000000000000000028152600401602060405180830381600087803b15801561159d57600080fd5b505af11580156115b1573d6000803e3d6000fd5b505050506040513d60208110156115c757600080fd5b810190808051906020019092919050505073ffffffffffffffffffffffffffffffffffffffff163373ffffffffffffffffffffffffffffffffffffffff1614151561161157600080fd5b82600d81905550816007908051906020019061162e929190611a4a565b50505050565b6060600b8054600181600116156101000203166002900480601f0160208091040260200160405190810160405280929190818152602001828054600181600116156101000203166002900480156116cc5780601f106116a1576101008083540402835291602001916116cc565b820191906000526020600020905b8154815290600101906020018083116116af57829003601f168201915b5050505050905090565b606060088054600181600116156101000203166002900480601f01602080910402602001604051908101604052809291908181526020018280546001816001161561010002031660029004801561176e5780601f106117435761010080835404028352916020019161176e565b820191906000526020600020905b81548152906001019060200180831161175157829003601f168201915b5050505050905090565b6117b86040805190810160405280600f81526020017f6e6f646564625e7265676973746572000000000000000000000000000000000081525033836117c5565b6003816000191690555050565b60008060008060009054906101000a900473ffffffffffffffffffffffffffffffffffffffff1691508173ffffffffffffffffffffffffffffffffffffffff1663321db4d46040518163ffffffff167c0100000000000000000000000000000000000000000000000000000000028152600401602060405180830381600087803b15801561185257600080fd5b505af1158015611866573d6000803e3d6000fd5b505050506040513d602081101561187c57600080fd5b810190808051906020019092919050505090508073ffffffffffffffffffffffffffffffffffffffff1663cad58e8a8787876040518463ffffffff167c010000000000000000000000000000000000000000000000000000000002815260040180806020018473ffffffffffffffffffffffffffffffffffffffff1673ffffffffffffffffffffffffffffffffffffffff16815260200180602001838103835286818151815260200191508051906020019080838360005b8381101561194f578082015181840152602081019050611934565b50505050905090810190601f16801561197c5780820380516001836020036101000a031916815260200191505b50838103825284818151815260200191508051906020019080838360005b838110156119b557808201518184015260208101905061199a565b50505050905090810190601f1680156119e25780820380516001836020036101000a031916815260200191505b5095505050505050602060405180830381600087803b158015611a0457600080fd5b505af1158015611a18573d6000803e3d6000fd5b505050506040513d6020811015611a2e57600080fd5b8101908080519060200190929190505050925050509392505050565b828054600181600116156101000203166002900490600052602060002090601f016020900481019282601f10611a8b57805160ff1916838001178555611ab9565b82800160010185558215611ab9579182015b82811115611ab8578251825591602001919060010190611a9d565b5b509050611ac69190611aca565b5090565b611aec91905b80821115611ae8576000816000905550600101611ad0565b5090565b905600a165627a7a7230582043e5785396f978a8fd79a49c807e1fb484268f12a2bbda271dd84f12ef95cb810029",
  "source": "pragma solidity ^0.4.25;\n//\n// An example client calling our oracle service\n//\nimport \"./OracleAPI.sol\";\n\ncontract OracleTest is usingOracle {\n  uint256 public response;\n  string public entity;\n  bytes32 public id;\n  string public entryId;\n  uint public priceMB;\n  bool _exists;\n  string _originator_;\n  string _mint;\n  string _register;\n  string _deviceExists;\n  string _deviceType_;\n  string _deviceActivate;\n  uint256 _traffic;\n\n  constructor(address _lookupContract) usingOracle(_lookupContract) public{\n    priceMB = 6000;\n  }\n\n  function getExists() public view returns(bool){\n    return _exists;\n  }\n\n  function getMint() public view returns(string){\n    return _mint;\n  }\n\n  function getRegister() public view returns(string){\n    return _register;\n  }\n\n  function getDeviceExists() public view returns(string){\n    return _deviceExists;\n  }\n\n  function getDeviceActivate() public view returns(string){\n    return _deviceActivate;\n  }\n\n  function getDeviceType() public view returns(string){\n    return _deviceType_;\n  }\n\n  function getTraffic() public view returns(uint256){\n    return _traffic;\n  }\n\n  function __oracleCallback(uint256 _response, string _originator) onlyFromOracle public {\n    _traffic = _response;\n    _originator_ = _originator;\n  }\n\n  function __nodeRegisterCallback(string _response) onlyFromOracle public {\n    _register = _response;\n  }\n\n  function __nodeMintCallback(string _response) onlyFromOracle public {\n    _mint = _response;\n  }\n\n  function __nodeExistsCallback(bool _response, string _device) onlyFromOracle public {\n    _exists = _response;\n    _deviceExists = _device;\n  }\n\n  function __nodeActivateGWCallback(string _deviceType, string _device) onlyFromOracle public {\n    _deviceActivate = _device;\n    _deviceType_ = _deviceType;\n  }\n\n  function mint(string _json) public {\n    id = queryOracle('nodedb^mint', msg.sender, _json);\n  }\n\n  function register(string _json) public {\n    id = queryOracle('nodedb^register', msg.sender, _json);\n  }\n\n  function activateGW(string _json) public {\n    id = queryOracle('nodedb^activateGW', msg.sender, _json);\n  }\n\n  function exists(string _json) public {\n    id = queryOracle('nodedb^exists', msg.sender, _json);\n  }\n\n  function monitor(string _query) public {\n    id = queryOracle('monitor', msg.sender, _query);\n  }\n}\n",
  "sourcePath": "/home/sergio/workspace/tmp/MeshWifiDappOracle/contracts/oracle/OracleTest.sol",
  "compiler": {
    "name": "solc",
    "version": "0.4.25+commit.59dbf8f1.Emscripten.clang"
  },
  "schemaVersion": "3.0.0-beta.1",
  "updatedAt": "2019-02-20T11:49:53.635Z"
}